:040000003AEF02F0E1
:10000800FFFFFACF10F0FBCF11F0E9CF12F0EACFE3
:1000180013F0E1CF14F0E2CF15F0D9CF16F0DACF14
:1000280017F0F3CF18F0F4CF19F0F6CF1AF0F7CF96
:100038001BF0F8CF1CF0F5CF1DF0F2A401D001D0D1
:10004800A8D14D4A4E2A4DC009F04EC00AF031ECF5
:1000580015F0000E0918A00ED8B40A18420ED8B42C
:100068000B18D8A401D001D00FD0CE50CFCF0EF0AE
:100078000F6A0EC00FF00E6A0E1000010001986F93
:100088000F500001996F00D0F294B10ED76EF00EA8
:10009800D66E4D50640A4E10D8A401D001D060D15C
:1000A800532A53503C0AD8A401D001D060D045C08F
:1000B80001F046C002F047C003F048C004F0030E48
:1000C800056E000E066E000E076E000E086EC1EC7F
:1000D80012F00450011002100310D8A401D001D06E
:1000E80003D000010001A08F512A030E516401D0F2
:1000F80001D00BD00E6E070E00010001FB6F0E50F1
:100108000E6E030E516E0E5000D000010001FB511F
:10011800060AD8A401D001D005D000010001964BF1
:10012800972B18D000010001FB05D8A401D001D0FD
:1001380008D0000E00010001976FB90E0001966FFC
:1001480009D0000E00010001976F000E0001966FA4
:1001580001D000D0010E4526000E4622000E47228F
:10016800000E48220E6E000E536E0E5000D053B093
:1001780001D001D004D000010001A08D00D053C0EF
:1001880001F0026A000E046E0A0E036E6BEC12F0A8
:1001980002500110D8A401D001D004D00001000100
:1001A800A08B00D0000E4E6E000E4D6E000ECE6E6F
:1001B800CECFCFFFD5D0D4D0050E4D5C000E4E5813
:1001C800D8B001D001D003D08188819A02D081981B
:1001D800819A81848192DDD0050E4D5C000E4E58C7
:1001E800D8B001D001D003D08188818AD2D081983B
:1001F800819ACFD0CED0050E4D5C000E4E58D8A0B7
:1002080001D001D021D00B0E4D5C000E4E58D8A065
:1002180001D001D009D00F0E4D5C000E4E58D8A069
:1002280001D001D011D000D0150E4D5C000E4E58F3
:10023800D8A001D001D00BD0190E4D5C000E4E583D
:10024800D8B001D001D003D08188819A02D081989A
:10025800819A819481929DD0050E4D5C000E4E5876
:10026800D8A001D001D021D00B0E4D5C000E4E5805
:10027800D8A001D001D009D00F0E4D5C000E4E5809
:10028800D8A001D001D011D000D0150E4D5C000EC1
:100298004E58D8A001D001D00BD0190E4D5C000EDD
:1002A8004E58D8B001D001D003D08198818A02D0AD
:1002B800819A8198819481926CD0050E4D5C000ED4
:1002C8004E58D8A001D001D021D00B0E4D5C000EA5
:1002D8004E58D8A001D001D009D00F0E4D5C000EA9
:1002E8004E58D8A001D001D011D000D0150E4D5CC9
:1002F800000E4E58D8A001D001D00BD0190E4D5C7D
:10030800000E4E58D8B001D001D003D08198818A10
:1003180002D0819A8188819481923BD0050E4D5CF0
:10032800000E4E58D8B001D001D003D08198818AF0
:1003380002D08198819A819481822BD0050E4D5CE0
:10034800000E4E58D8B001D001D003D08198818AD0
:1003580002D08198819A818481921BD01AD019D0B9
:1003680000010001FB51000AD8B426D7010AD8B40D
:10037800D5D7030AD8B470D7010AD8B43CD7060A2F
:10038800D8B42AD7030AD8B4D9D7010AD8B495D78C
:1003980000D09EA001D001D001D09E909EAA01D08D
:1003A80001D046D0AE500E6E0F6A00010001955183
:1003B8000F1804E10001000194510E18D8B401D0BF
:1003C80001D009D00001000194299511D8A401D0C9
:1003D80001D00FD000D05204D8B401D001D009D038
:1003E8000E6E000E4F6E0E500E6E010E526E0E50B7
:1003F80000D052A001D001D01BD04F50010D0001F8
:10040800800EF324D96EDA6A0001000EDA22AE50AB
:10041800D00FDF6E4F2A4F50080AD8A401D001D060
:1004280007D00E6E020E526E0E5002D001D000D0D0
:100438001DC0F5FF1CC0F8FF1BC0F7FF1AC0F6FF70
:1004480019C0F4FF18C0F3FF17C0DAFF16C0D9FFB0
:1004580015C0E2FF14C0E1FF13C0EAFF12C0E9FFB4
:1004680011C0FBFF10C0FAFF1100FFFF8FEF15F05E
:10047800FFFFB3EC13F0948E948C670EAF6E900E62
:10048800AB6E240EAC6E0001F56F050E0001000185
:10049800FB6F0001F55181B001D001D01BD081BCA8
:1004A80001D001D017D00001F56F030E0001000143
:1004B800FB6F0001F55100D081A001D001D0FCD71D
:1004C80000D00001F56F030E000100019F6F0001CD
:1004D800F55100D00001F56F020E1E6E0001F551B6
:1004E8009EEC15F00001F66F0001F6510001F86F5F
:1004F800F76B0001F96F030E1E6E0001F9519EECB7
:1005080015F00001FA6F0001FA510001F71100011E
:1005180000019A6F0001F85100019B6F0001000172
:100528009A29D8B49B29D8A401D001D012D00001AF
:100538000001FB51030AD8B401D001D00AD0000150
:10054800F56F020E00010001FB6F0001F55101D0AB
:1005580000D000010001A0AD01D001D0FAD7000100
:100568000001A0AB01D001D03AD055EC10F0000149
:10057800E8C05AF00001E9C05BF0C2EC0FF00001DE
:10058800E8C05EF00001E9C05FF0E90E5A5C030EB6
:100598005B58D8B001D001D009D0E90E5E5C030EDB
:1005A8005F58D8A001D001D010D000D06250040A02
:1005B800D8B401D001D009D00001F56F040E1E6E29
:1005C8000001F55161EC15F00AD00001F56F040E39
:1005D8001E6E0001F5514AEC15F001D000D0000E56
:1005E80000010001E96F540E0001E86FE5EC05F029
:1005F8000001E8C054F00001E9C055F00001FBC05B
:100608004BF04C6A00010001A0AF01D001D0B2D27A
:1006180000010001FB51020AD8B401D001D0AAD2CE
:1006280000010001FB51070AD8B401D001D0A2D2C1
:100638005050020D0001B50EF324D96EDA6A00019C
:10064800000EDA225AC0DEFF5BC0DDFF5050020DFB
:100658000001A10EF324D96EDA6A0001000EDA2235
:1006680054C0DEFF55C0DDFF0001000E206E000102
:10067800A10E1F6E50C021F00001F56F010E226E11
:100688000001F551F1EC0AF00001000E206E0001A6
:10069800B50E1F6E50C021F00001F56F020E226EDC
:1006A8000001F551F1EC0AF0502A50500A0AD8A47A
:1006B80001D001D007D00001F56F000E506E000187
:1006C800F55100D000010001FB51030AD8B401D054
:1006D80001D0ADD1D80E5A5C000E5B58D8A001D01D
:1006E80001D020D0600E000100019A250001F56FAD
:1006F800F00E000100019B210001F66F0001F55189
:10070800545C0001F6515558D8B001D001D041D001
:100718000001F56F010E00010001FB6F0001F551AA
:1007280038D037D020EE5AF0DECFF5F0DDCFF6F036
:100738000001F51FF61FF54BF62BF00E0001F5250D
:100748001E6E000E0001F6211F6E000E216E280E8F
:10075800206EBCEC14F01E1E1F1E1E4A1F2A00012C
:1007680000019A511E26000100019B511F221E50B4
:10077800545C1F505558D8B001D001D00AD00001A0
:10078800F56F010E00010001FB6F0001F55101D06A
:1007980000D06250070AD8A401D001D02FD100019F
:1007A8000001FB05D8B401D001D028D10001000117
:1007B8009F07000100019F6701D001D0DBD1000134
:1007C800F56F010E000100019F6F0001F551F00E59
:1007D8005A5C000E5B58D8B001D001D066D020EE2C
:1007E8005AF0DECFF5F0DDCFF6F00001F51FF61F69
:1007F800F54BF62BF00E0001F5251E6E000E0001DC
:10080800F6211F6E000E216E280E206EBCEC14F02F
:100818001E1E1F1E1E4A1F2A000100019A511E2477
:10082800000100019C6F000100019B511F20000185
:100838009D6F000100019C51545C000100019D5115
:100848005558D8B001D001D026D0B50E000100010E
:10085800965D000E00019759D8B001D001D008D09C
:1008680000010001FB05D8A401D001D00AD000D0B6
:100878000001F56F010E00010001FB6F0001F55149
:1008880079D10001F56F060E00010001FB6F000130
:10089800F55170D16FD10001F56F000E0001000114
:1008A800FB6F0001F55166D165D1090E5A5C010E46
:1008B8005B58D8B001D001D055D0100E5A241E6E06
:1008C800FF0E5B201F6E000E216E640E206EBCECC6
:1008D80014F0000100019A511E24000100019C6FD0
:1008E800000100019B511F2000019D6F00010001C4
:1008F8009C51545C000100019D515558D8B001D05D
:1009080001D026D0B50E00010001965D000E000151
:100918009759D8B001D001D008D000010001FB05DB
:10092800D8A401D001D00AD000D00001F56F010E83
:1009380000010001FB6F0001F5511CD10001F56FAA
:10094800060E00010001FB6F0001F55113D112D111
:100958000001F56F000E00010001FB6F0001F55169
:1009680009D108D1F00E000100019A25000100010B
:100978009C6F0A0E000100019B2100019D6F000180
:1009880000019C51545C000100019D515558D8B09C
:1009980001D001D026D0B50E00010001965D000EF1
:1009A80000019759D8B001D001D008D0000100014A
:1009B800FB05D8A401D001D00AD000D00001F56F02
:1009C800010E00010001FB6F0001F551D3D00001B9
:1009D800F56F060E00010001FB6F0001F551CAD04A
:1009E800C9D00001F56F000E00010001FB6F000186
:1009F800F551C0D0BFD0BED0BDD0BCD000010001E1
:100A0800FB05D8B401D001D008D00001F56F050E60
:100A180000010001FB6F0001F5510001F56F030EA5
:100A2800000100019F6F0001F551A4D0A3D06250CE
:100A3800070AD8A401D001D093D0000100019F0774
:100A4800000100019F6701D001D094D00001F56F2B
:100A5800030E000100019F6F0001F55154C09AF088
:100A680055C09BF0D70E5A5C000E5B58D8B001D029
:100A780001D029D020EE5AF0DECFF5F0DDCFF6F028
:100A88000001F51FF61FF54BF62BD70E0001F525D3
:100A98001E6E000E0001F6211F6E000E216E280E3C
:100AA800206EBCEC14F01E50000100019A271F5064
:100AB800000100019B230001B00E00019A5F040EA3
:100AC80000019B5B2DD0F00E5A5C000E5B58D8B02D
:100AD80001D001D01CD0290E5A241E6EFF0E5B20B7
:100AE8001F6E000E216E640E206EBCEC14F01E50BA
:100AF800000100019A5F1F50000100019B5B00018B
:100B0800B00E00019A5F040E00019B5B09D0000142
:100B1800740E00019A5F0E0E00019B5B01D000D09D
:100B28000001F56F020E1E6E0001F5510001000173
:100B38009B511F6E78EC15F00001F56F030E1E6EC9
:100B48000001F5519AC01FF078EC15F00001F56F1F
:100B5800000E00010001FB6F0001F5510BD00AD017
:100B68000001F56F030E000100019F6F0001F551B0
:100B780001D000D00001F56F000E516E0001F55153
:100B88001F0E00010001A017828A94C030F095C0A2
:100B980031F0000E336E540E326E0001F56F000E08
:100BA800346E0001F5510001F66F130E356E000129
:100BB800F651EFEC07F0829ACCD4CBD4CAD43AEFF2
:100BC80002F0FFFFFA0E00010001985D000E00011F
:100BD8009959D8B001D001D009D00001EA6F020EAE
:100BE80000010001FB6F0001EA5100D098C028F015
:100BF80099C029F0FCEC14F028C02EF029C02FF081
:100C08002AC030F02BC031F0000E326E000E336E69
:100C1800A00E346E3F0E356E2DEC0FF02EC012F183
:100C28002FC013F130C014F131C015F1000E0001CE
:100C38000001DC6F000E0001DD6F000E0001DE6FA9
:100C48003F0E0001DF6F12C1D8F013C1D9F014C1F3
:100C5800DAF015C1DBF079EC09F0D8C0E0F0D9C0C2
:100C6800E1F0DAC0E2F0DBC0E3F0E0EC0DF0000107
:100C780020EE04F00001E851D9260001E951DA22FA
:100C88000001E0C0DEFF0001E1C0DDFF000120EE51
:100C98000AF00001E851D9260001E951DA22DECF35
:100CA800EAF0DDCFEBF0E80E0001EA5D030EEB5948
:100CB800D8B001D001D032D0790E2E6E690E2F6EC9
:100CC8003E0E306E000120EE0AF00001E851D926F0
:100CD8000001E951DA22DECF26F0DDCF27F018EC4B
:100CE80015F026C02BF027C02CF028C02DF0E8EC1A
:100CF80010F02BC03CF02CC03DF02DC03EF01AEC9B
:100D08000DF0000120EE08F00001E851D92600019D
:100D1800E951DA223CC0DEFF3DC0DDFF12C132F0EE
:100D280013C133F014C134F015C135F0000120EEC1
:100D38000CF00001E851D9260001E951DA22DECF92
:100D480028F0DDCF29F0FCEC14F028C02EF029C0E3
:100D58002FF02AC030F02BC031F02DEC0FF02EC050
:100D680000F12FC001F130C002F131C003F112C10E
:100D780032F013C133F014C134F015C135F000C19D
:100D88002EF001C12FF002C130F003C131F02DEC7B
:100D98000FF02EC004F12FC005F130C006F131C0AC
:100DA80007F1000E00010001CD6F500E0001CE6F5B
:100DB800C30E0001CF6F470E0001D06FE20E326EF6
:100DC800E90E336E1D0E346E420E356E04C12EF0E0
:100DD80005C12FF006C130F007C131F02DEC0FF03E
:100DE8002EC0C9F02FC0CAF030C0CBF031C0CCF053
:100DF80040EC0CF0C9C008F1CAC009F1CBC00AF137
:100E0800CCC00BF108C1CDF009C1CEF00AC1CFF0BA
:100E18000BC1D0F0A90E00010001C96F5F0E0001DF
:100E2800CA6F630E0001CB6F580E0001CC6F40EC07
:100E38000CF0C9C0D8F0CAC0D9F0CBC0DAF0CCC029
:100E4800DBF0000E00010001DC6F000E0001DD6F19
:100E5800000E0001DE6F3F0E0001DF6F79EC09F034
:100E6800D8C012F1D9C013F1DAC014F1DBC015F102
:100E7800000100019E2B12C1DCF013C1DDF014C18A
:100E8800DEF015C1DFF0000120EE08F00001E851A6
:100E9800D9260001E951DA22DECF28F0DDCF29F08A
:100EA800FCEC14F028C02EF029C02FF02AC030F036
:100EB8002BC031F0DDEC14F02EC0D8F02FC0D9F0E3
:100EC80030C0DAF031C0DBF079EC09F0D8C00CF1B1
:100ED800D9C00DF1DAC00EF1DBC00FF1000E000130
:100EE8000001DC6F000E0001DD6F000E0001DE6FF7
:100EF8003F0E0001DF6F0CC1D8F00DC1D9F00EC153
:100F0800DAF00FC1DBF079EC09F0D8C0E0F0D9C015
:100F1800E1F0DAC0E2F0DBC0E3F0E0EC0DF0E0C0B5
:100F280010F1E1C011F101010101105100010001AE
:100F38009027010101011151000100019123000EC8
:100F4800000100019223000E00010001932300011B
:100F580000019E51200AD8A401D001D035D0050E39
:100F68000001EA6FD8900001000193330001923329
:100F780000019133000190330001EA2FF3D70001FB
:100F880020EE02F00001E851D9260001E951DA22E9
:100F9800000190C0DEFF000191C0DDFF000E0001DE
:100FA8000001906F000E0001916F000E0001926F1A
:100FB800000E0001936F0001EA6F000E00010001AE
:100FC8009E6F0001EA5100D010C1E8F011C1E9F0AC
:100FD80000D01200FFFFFFFF140E356001D001D0D2
:100FE80077D130C0C9F0366E040E00010001CA6F17
:100FF800365034500008352400010001CB6F32C050
:10100800D9FF33C0DAFFDECF36F0DDCF37F037C097
:1010180036F0376A365000010001CC6F32C0D9FF74
:1010280033C0DAFFDF5000010001CD6F20EE02F07F
:101038003250D9263350DA22DECF36F0DDCF37F002
:1010480037C036F0376A365000010001CE6F20EE07
:1010580002F03250D9263350DA22DF500001000165
:10106800CF6F20EE0AF03250D9263350DA22DECF85
:1010780036F0DDCF37F037C036F0376A365000012A
:101088000001D06F20EE0AF03250D9263350DA2210
:10109800DF5000010001D16F20EE04F03250D92654
:1010A8003350DA22DECF36F0DDCF37F037C036F0F6
:1010B800376A365000010001D26F20EE04F032503A
:1010C800D9263350DA22DF5000010001D36F20EE19
:1010D80006F03250D9263350DA22DECF36F0DDCF93
:1010E80037F037C036F0376A365000010001D46F48
:1010F80020EE06F03250D9263350DA22DF500001B4
:101108000001D56F20EE08F03250D9263350DA228C
:10111800DECF36F0DDCF37F037C036F0376A3650DD
:1011280000010001D66F20EE08F03250D926335066
:10113800DA22DF5000010001D76F20EE0EF03250A6
:10114800D9263350DA22DF5000010001D86F0001A0
:1011580000019B5100010001D96F9AC0DAF000012B
:1011680000019D5100010001DB6F9CC0DCF04C5078
:1011780000010001DD6F4BC0DEF0030E3526020EC4
:101188003402F350346E030E3426000E00010001C1
:10119800E46F030E0001E36F20D03450000100011A
:1011A800E325366EFD0E36260001C90E3624D96EAB
:1011B800DA6A0001000EDA220001C90E00010001FE
:1011C800E325E16EE26A0001000EE222DFCFE7FFCD
:1011D80000010001E34BE42B00D03450366E376A2F
:1011E800361E371E364A372A35503624386E000EDA
:1011F8003720396E030E3826000E3922000100010F
:10120800E451800A3A6E385000010001E35D39501C
:10121800800A3A58D8A001D001D0BFD700D0000129
:10122800000E1F6E0001C90E1E6E345000083524D2
:10123800030F206E79EC13F01EC0DFF01FC0E0F042
:10124800000E00010001E26F000E0001E16F13D0F3
:101258000001C90E00010001E125D96EDA6A00011A
:10126800000EDA22DF501E6EADEC15F00001000111
:10127800E14BE22B00D03450366E376A361E371EEB
:10128800364A372A35503624386E000E3720396EE4
:10129800030E3826000E392200010001E251800AAF
:1012A8003A6E385000010001E15D3950800A3A5821
:1012B800D8A001D001D0CCD700D000010001E05166
:1012C8001E6EADEC15F0DFC01EF0ADEC15F00BD0C6
:1012D80030C025F031C026F0366E040E276E365029
:1012E80099EC14F000D01200FFFFFFFF0001DA357F
:1012F8000001DB35426E0001DE350001DF35416E4D
:101308004250D8B401D001D00FD04150426001D032
:1013180001D013D04250000841243F6E210E3F5C9B
:10132800D8A001D001D009D0DCC0D8F0DDC0D9F0F8
:10133800DEC0DAF0DFC0DBF04ED14150D8B401D0C6
:1013480001D00FD04250416001D001D013D041509C
:10135800000842243F6E210E3F5CD8A001D001D086
:1013680009D0D8C0D8F0D9C0D9F0DAC0DAF0DBC0DB
:10137800DBF031D13F6E060E406E3F500001000198
:10138800DBAF01D001D002D0408E00D000010001B7
:10139800DFAF01D001D001D0408C00010001DA8F0D
:1013A800FF0E00010001D817FF0E0001D917FF0E2C
:1013B8000001DA17000E0001DB1700010001DE8FC3
:1013C800FF0E00010001DC17FF0E0001DD17FF0E04
:1013D8000001DE17000E0001DF174150426001D006
:1013E80001D02FD000D00001D8900001DC370001D7
:1013F800DD370001DE370001DF3741064150421872
:10140800D8B401D001D016D040064050070BD8A45C
:1014180001D001D0E8D70ED00DD00CD00001D89063
:101428000001DB330001DA330001D9330001D8337E
:10143800422A00D04150426201D001D0EFD735D0C6
:1014480034D04250416001D001D02FD000D00001EB
:10145800D8900001D8370001D9370001DA370001E8
:10146800DB37420641504218D8B401D001D016D01B
:1014780040064050070BD8A401D001D0E8D70ED0C1
:101488000DD00CD00001D8900001DF330001DE330D
:101498000001DD330001DC33412A00D041504262B3
:1014A80001D001D0EFD701D000D040AE01D001D09B
:1014B8001BD0FF0E00010001D81BFF0E0001D91B35
:1014C800FF0E0001DA1BFF0E0001DB1B010E0001FD
:1014D8000001D827000E0001D923000E0001DA23ED
:1014E800000E0001DB2300D040AC01D001D01BD09E
:1014F800FF0E00010001DC1BFF0E0001DD1BFF0ECB
:101508000001DE1BFF0E0001DF1B010E00010001C0
:10151800DC27000E0001DD23000E0001DE23000E93
:101528000001DF2300D03F6E000E406E3F500001E7
:101538000001D85100010001DC2700010001D95148
:1015480000010001DD2300010001DA510001000162
:10155800DE2300010001DB5100010001DF2300014F
:101568000001DFAF01D001D01FD0FF0E0001000144
:10157800DC1BFF0E0001DD1BFF0E0001DE1BFF0E52
:101588000001DF1B010E00010001DC27000E000135
:10159800DD23000E0001DE23000E0001DF233F6E75
:1015A800010E406E3F5000D0DCC01EF0DDC01FF0C1
:1015B800DEC020F0DFC021F042C022F040C023F09E
:1015C80095EC0EF01EC0D8F01FC0D9F020C0DAF09C
:1015D80021C0DBF000D01200FFFFFFFF2204D8A4D7
:1015E80001D001D005D0236E280E2C6E235005D0D3
:1015F800236E040E2C6E235000D050042E6E0A0E5B
:101608002E6401D001D005D0236E090E2E6E235012
:1016180000D050282D6E2D500A0AD8A401D001D030
:1016280005D0236E000E2D6E235000D02D50020DD4
:10163800F3501F24D96E000E2020DA6E2150020DBF
:10164800F3501F24E16E000E2020E26EE652DE52B7
:10165800E550800A236EDD50800A235C02E1DF50EA
:10166800E75CD8B001D001D03CD02C50236E246A5E
:101678002D50020DF3501F24D96E000E2020DA6E73
:10168800DECF25F0DDCF26F02150020DF3501F24C8
:10169800D96E000E2020DA6EDECF27F0DDCF28F0DD
:1016A800271E281E274A282A25502724296E265017
:1016B80028202A6E2A50800A2B6E2350295C245039
:1016C800800A2B58D8B001D001D005D022C01EF016
:1016D8004AEC15F042D022C01EF061EC15F03DD066
:1016E8003CD02150020DF3501F24D96E000E20204B
:1016F800DA6EDECF23F0DDCF24F02D50020DF3504B
:101708001F24D96E000E2020DA6EDECF25F0DDCF43
:1017180026F0251E261E254A262A23502524276E14
:1017280024502620286E2C50296E2A6A2A50800AB6
:101738002B6E2750295C2850800A2B58D8B001D02E
:1017480001D005D022C01EF061EC15F006D022C0F1
:101758001EF04AEC15F001D000D02E50020DF350C7
:101768001F24D96E000E2020DA6E2150020DF3508E
:101778001F24E16E000E2020E26EE652DE52E55094
:10178800800A236EDD50800A235C02E1DF50E75CAB
:10179800D8B001D001D037D02E50020DF3501F24FD
:1017A800D96E000E2020DA6EDECF23F0DDCF24F0D4
:1017B8002150020DF3501F24D96E000E2020DA6E3E
:1017C800DECF25F0DDCF26F0251E261E254A262A47
:1017D80023502524276E24502620286E2C50296E4D
:1017E8002A6A2A50800A2B6E2750295C2850800AC2
:1017F8002B58D8B001D001D03DD022C01EF061ECEA
:1018080015F038D037D02150020DF3501F24D96E6F
:10181800000E2020DA6EDECF23F0DDCF24F02E502C
:10182800020DF3501F24D96E000E2020DA6EDECF91
:1018380025F0DDCF26F0251E261E254A262A235010
:101848002524276E24502620286E2C50296E2A6ABB
:101858002A50800A2B6E2750295C2850800A2B5862
:10186800D8B001D001D006D022C01EF061EC15F02E
:1018780001D000D01200FFFFFFFF0001CB350001AF
:10188800CC3500010001D66F0001D66701D001D028
:101898000FD0000E00010001C96F000E0001CA6FD1
:1018A800000E0001CB6F000E0001CC6FBDD0BCD084
:1018B8000001CF350001D03500010001D76F0001CC
:1018C800D76701D001D00FD0000E00010001C96F09
:1018D800000E0001CA6F000E0001CB6F000E000160
:1018E800CC6FA2D0A1D000010001D751890F00010F
:1018F8000001D65FCCC0D7F00001D0510001000133
:10190800D71B800E00010001D71700010001CB8F03
:10191800FF0E00010001C917FF0E0001CA17FF0ED4
:101928000001CB17000E0001CC1700010001CF8F7A
:10193800FF0E00010001CD17FF0E0001CE17FF0EAC
:101948000001CF17000E0001D0173E6E200E0001D7
:101958000001D56F3E5000D00001D8900001D1376A
:101968000001D2370001D3370001D437000100014C
:10197800CD5100010001C95D00010001CE510001F7
:101988000001CA5900010001CF5100010001CB59E3
:1019980000010001D05100010001CC59D8A001D0AC
:1019A80001D01CD000010001CD5100010001C95F28
:1019B80000010001CE5100010001CA5B00010001D5
:1019C800CF5100010001CB5B00010001D0510001A3
:1019D8000001CC5B00010001D18100D00001D8904A
:1019E8000001C9370001CA370001CB370001CC37E5
:1019F80000010001D52FB0D700D0D1C01EF0D2C051
:101A08001FF0D3C020F0D4C021F0D6C022F0D7C038
:101A180023F095EC0EF01EC0C9F01FC0CAF020C01C
:101A2800CBF021C0CCF000D01200FFFFFFFF0F0E5B
:101A3800406E3CC041F03DC042F03EC043F04028FB
:101A4800446E04D0D890433242324132442EFAD701
:101A5800415000010001CE6F0001CE6701D001D0D6
:101A68000AD0000E3C6E000E3D6E000E3E6E000E5B
:101A78003F6EA0D09FD0170E406E3CC041F03DC0D5
:101A880042F03EC043F04028446E04D0D890433220
:101A980042324132442EFAD7415000010001C96F49
:101AA8003D8EFF0E3C16FF0E3D16000E3E163C50B6
:101AB80000010001CA6F3D500001CB6F3E5000018C
:101AC800CC6F0001CD6B8E0E00010001CE5F0001CE
:101AD8000001CEAF01D001D024D000010001CE51C9
:101AE800800A8F0FD8B001D001D00BD0000E3C6E09
:101AF800000E3D6E000E3E6E000E3F6E5BD05AD05B
:101B080000D00001D8900001CD330001CC33000192
:101B1800CB330001CA3300010001CE3FF2D729D0F0
:101B280028D0170E00010001CE6501D001D019D0D0
:101B3800000E3C6E000E3D6E000E3E6E000E3F6EB7
:101B480039D038D00ED00001D8900001CA37000132
:101B5800CB370001CC370001CD3700010001CE079B
:101B680000D000010001CE6701D001D0ECD701D030
:101B780000D000010001C951D8B401D001D011D062
:101B880000010001CD1F0001CC1F0001CB1F000187
:101B9800CA6D000E0001CB230001CC230001CD2328
:101BA80000D0CAC03CF0CBC03DF0CCC03EF0CDC0A8
:101BB8003FF000D01200FFFFFFFF0001E2350001F7
:101BC800E335446E446601D001D00FD0000E000109
:101BD8000001E06F000E0001E16F000E0001E26FEE
:101BE800000E0001E36F9BD09AD00001E0C0E4F042
:101BF8000001E1C0E5F00001E2C0E6F00001E3C049
:101C0800E7F0200E06D00001D890E733E633E5333D
:101C1800E433E82EF8D70001E451436E00010001D7
:101C2800E28FFF0E00010001E017FF0E0001E1172F
:101C3800FF0E0001E217000E0001E317960E445E46
:101C480044AE01D001D025D04450800A970FD8B0B7
:101C580001D001D010D0000E00010001E06F000E8D
:101C68000001E16F000E0001E26F000E0001E36F5A
:101C780056D055D000D00001D8900001E3330001C0
:101C8800E2330001E1330001E033443EF4D728D0C9
:101C980027D01F0E446401D001D01CD0000E0001D3
:101CA8000001E06F000E0001E16F000E0001E26F1D
:101CB800000E0001E36F33D032D00CD00001D89071
:101CC8000001E0370001E1370001E2370001E337A6
:101CD800440600D0446601D001D0F0D701D000D02E
:101CE8004350D8B401D001D011D000010001E31F46
:101CF8000001E21F0001E11F0001E06D000E00017C
:101D0800E1230001E2230001E32300D0E0C0E0F07A
:101D1800E1C0E1F0E2C0E2F0E3C0E3F000D012007D
:101D2800FFFFFFFF2250D8B401D001D009D02150C5
:101D38001E101F102010D8A401D001D013D000D03D
:101D4800000E1E6E000E1F6E000E206E000E216E1D
:101D58007ED07DD007D0222AD890213220321F325F
:101D68001E3200D0000E1E14246E000E1F14256EA5
:101D7800000E2014266EFE0E2114276E2750241004
:101D880025102610D8A401D001D0E5D70FD00ED049
:101D9800222A010E1E26000E1F22000E2022000EEF
:101DA8002122D890213220321F321E32000E1E14FA
:101DB800246E000E1F14256E000E2014266EFF0ED2
:101DC8002114276E2750241025102610D8A401D0DE
:101DD80001D0DED708D007D02206D8901E361F368D
:101DE8002036213600D020AE01D001D0F5D722B060
:101DF80001D001D008D0FF0E1E16FF0E1F167F0E51
:101E08002016FF0E2116D890223222C024F0256A0F
:101E1800266A276A24C027F0266A256A246A24507D
:101E28001E1225501F12265020122750211223500F
:101E3800D8B401D001D002D0218E00D01EC01EF02F
:101E48001FC01FF020C020F021C021F000D01200D8
:101E5800FFFFFFFF30343134376E376601D001D0D1
:101E68000AD0000E2E6E000E2F6E000E306E000E81
:101E7800316E82D081D0343435343D6E3D6601D028
:101E880001D00AD0000E2E6E000E2F6E000E306E9E
:101E9800000E316E71D070D03D507B0F372631C0A7
:101EA8003DF035503D1A800E3D16308E348EFF0EB3
:101EB8003216FF0E3316FF0E3416000E3516000EBE
:101EC800386E000E396E000E3A6E000E3B6E366E9E
:101ED800070E3C6E365000D02EA001D001D009D09C
:101EE800325038263350392234503A2235503B226A
:101EF80000D0D890313230322F322E32D89032364C
:101F08003336343635363C2EE7D700D0366E110ED0
:101F18003C6E365000D02EA001D001D009D03250EE
:101F280038263350392234503A2235503B2200D0DB
:101F3800D890313230322F322E32D8903B323A326A
:101F4800393238323C2EE7D700D038C01EF039C0BD
:101F58001FF03AC020F03BC021F037C022F03DC04E
:101F680023F095EC0EF01EC02EF01FC02FF020C0FD
:101F780030F021C031F000D01200FFFFFFFF47EC26
:101F880014F00009D8B401D001D009D00001EA6FDB
:101F9800020E00010001FB6F0001EA5100D00001B0
:101FA800EA6FCC0E1E6E0001EA5116EC14F0000127
:101FB800EA6F440E1E6E0001EA5116EC14F047EC6D
:101FC80014F00009D8B401D001D009D00001EA6F9B
:101FD800020E00010001FB6F0001EA5100D0000170
:101FE800EA6FCC0E1E6E0001EA5116EC14F00001E7
:101FF800EA6FBE0E1E6E0001EA5116EC14F03EECBC
:1020080013F00001EA6F0001EA5100010001EC6FD2
:102018000001ED6B3EEC13F00001EA6F0001EA519C
:1020280000010001EE6F0001EF6BCD0E0001000111
:10203800CD6FCC0E0001CE6FCC0E0001CF6F3F0EDE
:102048000001D06F00010001EE510001EB6FEA6B57
:1020580000010001EC510001EA11286E00010001A5
:10206800ED510001EB11296EFCEC14F028C0C9F009
:1020780029C0CAF02AC0CBF02BC0CCF040EC0CF041
:10208800C9C0E0F0CAC0E1F0CBC0E2F0CCC0E3F0D8
:10209800E0EC0DF0E0C0E8F0E1C0E9F000D012009B
:1020A800FFFFFFFF70EC14F00009D8B401D001D095
:1020B80009D00001EA6F020E00010001FB6F000168
:1020C800EA5100D00001EA6FCC0E1E6E0001EA5101
:1020D800E5EC13F00001EA6F440E1E6E0001EA51B0
:1020E800E5EC13F070EC14F00009D8B401D001D07D
:1020F80009D00001EA6F020E00010001FB6F000128
:10210800EA5100D00001EA6FCC0E1E6E0001EA51C0
:10211800E5EC13F00001EA6FBE0E1E6E0001EA51F5
:10212800E5EC13F003EC13F00001EA6F0001EA514B
:1021380000010001EC6F0001ED6B03EC13F00001EE
:10214800EA6F0001EA5100010001EE6F0001EF6B38
:10215800CD0E00010001CD6FCC0E0001CE6FCC0E6C
:102168000001CF6F3F0E0001D06F00010001EE515A
:102178000001EB6FEA6B00010001EC510001EA116C
:10218800286E00010001ED510001EB11296EFCECF5
:1021980014F028C0C9F029C0CAF02AC0CBF02BC05F
:1021A800CCF040EC0CF0C9C0E0F0CAC0E1F0CBC004
:1021B800E2F0CCC0E3F0E0EC0DF0E0C0E8F0E1C004
:1021C800E9F000D01200FFFFFFFF0F0E316E2BC0A9
:1021D80032F02CC033F02DC034F03128356E04D0E5
:1021E800D890343233323232352EFAD732503A6EF2
:1021F8003A6601D001D008D0000E2B6E000E2C6E6E
:10220800000E2D6E70D06FD00F0E316E2EC032F0D2
:102218002FC033F030C034F03128356E04D0D89058
:10222800343233323232352EFAD732503B6E3B6677
:1022380001D001D008D0000E2B6E000E2C6E000EBF
:102248002D6E51D050D0000E376E000E386E000E35
:10225800396E3B50890F3A5E2DC03BF030503B1A27
:10226800800E3B162C8EFF0E2B16FF0E2C16000E22
:102278002D162F8EFF0E2E16FF0E2F16000E30165F
:10228800316E180E366E3150D890373638363936AA
:102298002E502B5C2F502C5830502D58D8A001D0E0
:1022A80001D007D02E502B5E2F502C5A30502D5A6B
:1022B8003780D8902B362C362D36362EE5D700D0E1
:1022C80037C01EF038C01FF039C020F03AC021F0E6
:1022D8003BC022F0F2EC11F01EC02BF01FC02CF016
:1022E80020C02DF000D01200FFFFFFFF0450D8B42B
:1022F80001D001D008D0015002100310D8A401D099
:1023080001D010D000D0000E016E000E026E000E3B
:10231800036E62D061D006D0042AD890033202320C
:10232800013200D0000E0114066E000E0214076E72
:10233800FE0E0314086E065007100810D8A401D02A
:1023480001D0EAD70DD00CD0042A010E0126000EC8
:102358000222000E0322D89003320232013200D04A
:10236800000E0114066E000E0214076EFF0E031411
:10237800086E065007100810D8A401D001D0E4D781
:1023880007D006D00406D89001360236033600D0AE
:1023980002AE01D001D0F6D704B001D001D002D0EE
:1023A800029E00D0D89004320450086E076A066A6C
:1023B8000650011207500212085003120550D8B4F3
:1023C80001D001D002D0038E00D001C001F002C0BC
:1023D80002F003C003F000D01200FFFFFFFF2150FE
:1023E800D8B401D001D008D01E501F102010D8A496
:1023F80001D001D010D000D0000E1E6E000E1F6E4E
:10240800000E206E62D061D006D0212AD8902032EA
:102418001F321E3200D0000E1E14236E000E1F1431
:10242800246EFE0E2014256E235024102510D8A4E7
:1024380001D001D0EAD70DD00CD0212A010E1E26DA
:10244800000E1F22000E2022D89020321F321E328A
:1024580000D0000E1E14236E000E1F14246EFF0EF3
:102468002014256E235024102510D8A401D001D0A3
:10247800E4D707D006D02106D8901E361F3620365E
:1024880000D01FAE01D001D0F6D721B001D001D0C5
:1024980002D01F9E00D0D89021322150256E246A88
:1024A800236A23501E1224501F1225502012225036
:1024B800D8B401D001D002D0208E00D01EC01EF0AA
:1024C8001FC01FF020C020F000D01200FFFFFFFF48
:1024D800056E000E076E055002AE01D001D009D07E
:1024E800016C021ED8B0022A056E010E076E055057
:1024F80000D004AE01D001D005D0036C041ED8B0C2
:10250800042A00D004500310D8B401D001D024D03C
:10251800056E010E066E055005D0D89003360436B8
:10252800062A00D004AE01D001D0F7D701D000D0E0
:102538000350015C04500258D8A001D001D005D046
:102548000350015E0450025A00D0D890043203327E
:10255800062EEED701D000D00750D8B401D001D054
:1025680005D0016C021ED8B0022A00D001C001F0CB
:1025780002C002F000D01200FFFFFFFF0850051054
:1025880006100710D8B401D001D02FD0096E010E63
:102598000A6E095007D0D890053606360736083631
:1025A8000A2A00D008AE01D001D0F5D701D000D05A
:1025B8000550015C0650025807500358085004584B
:1025C800D8A001D001D009D00550015E0650025AAA
:1025D8000750035A0850045A00D0D89008320732DE
:1025E800063205320A2EE4D700D001C001F002C03D
:1025F80002F003C003F004C004F01200FFFFFFFF65
:10260800000E206E000E1F6E2050800A800F080EEC
:10261800D8B41F5CD8A001D001D002D027D026D0D2
:10262800939E819E00D000D0D8901E32938E0A0EC1
:10263800E82EFED781BE01D002D0818E01D0819EC6
:1026480081AE01D001D002D01E8E00D0640EE82EDB
:10265800FED71F4A202A2050800A800F080ED8B4BF
:102668001F5CD8A001D001D0DBD700D01E5000D00D
:102678001200FFFFFFFF000E206E000E1F6E20509D
:10268800800A800F080ED8B41F5CD8A001D001D0F2
:1026980002D027D026D09396819600D000D0D8902B
:1026A8001E3293860A0EE82EFED781B601D002D0DC
:1026B800818601D0819681A601D001D002D01E8EDC
:1026C80000D0640EE82EFED71F4A202A2050800A28
:1026D800800F080ED8B41F5CD8A001D001D0DBD77A
:1026E80000D01E5000D01200FFFFFFFF23682468AF
:1026F8002AD01EC0D9FF1FC0DAFFDF50216E21503B
:10270800231A1E4A1F2A216E080E226E21502266A5
:1027180001D001D002D017D016D023A001D001D00B
:1027280008D0D89024322332010E231AA00E241A7E
:1027380003D0D890243223322206226601D001D059
:10274800ECD701D000D020062028D8A401D001D091
:10275800D0D723C01EF024C01FF01200FFFFFFFFD8
:10276800000E806E000E816E400E826E9268C90E59
:10277800936E190E946E000E8A6E000EC26E060ECF
:10278800C16E000EBD6E2C0EC86EA00EC76E380E40
:10279800C66E000EC56E800ED56E030ECD6EE00EB1
:1027A800F26E000EF16E9D8A000E00010001996F15
:1027B800000E0001986F380E616EA40E606E120054
:1027C800FFFFFFFF000E206E000E1F6E2050800AD4
:1027D800800F080ED8B41F5CD8A001D001D002D059
:1027E8001FD01ED0939E819E1EA001D001D002D082
:1027F800938E03D0939E819E00D0320EE82EFED792
:10280800D8901E32938E1F4A202A2050800A800FAB
:10281800080ED8B41F5CD8A001D001D0E3D700D0EF
:102828001200FFFFFFFF000E206E000E1F6E2050EB
:10283800800A800F080ED8B41F5CD8A001D001D040
:1028480002D01FD01ED0939681961EA001D001D031
:1028580002D0938603D09396819600D0320EE82E4C
:10286800FED7D8901E3293861F4A202A2050800A0D
:10287800800F080ED8B41F5CD8A001D001D0E3D7D0
:1028880000D01200FFFFFFFF000E206E000E1F6E2B
:1028980093968196040E1E6E1D0EE82EFED71E2EF0
:1028A800FCD700F09386818681BA01D002D0818A54
:1028B80001D0819A00D081BA01D001D0FCD700D0D4
:1028C800F00EE82EFED7C80E00D000F0E82EFCD798
:1028D800000E00D01200FFFFFFFF000E206E000E5A
:1028E8001F6E939E819E040E1E6E1D0EE82EFED74F
:1028F8001E2EFCD700F0938E818E81BE01D002D0AF
:10290800818E01D0819E00D081BE01D001D0FCD73C
:1029180000D0F00EE82EFED7C80E00D000F0E82E4A
:10292800FCD7000E00D01200FFFFFFFF25C029F0E2
:1029380027C02AF0286E010E2B6E28502C682D68AF
:10294800000E1F6E290E1E6E286E050E206E285072
:1029580079EC13F01EC02EF01FC02FF02F501E6E02
:10296800ADEC15F02EC01EF0ADEC15F01200FFFF17
:10297800FFFF000E236E000E226E00D01EA001D0B5
:1029880001D005D0205022262150232200D0D890F3
:1029980020362136D8901F321E321F501E10D8A460
:1029A80001D001D0EBD722C01EF023C01FF01200C7
:1029B800FFFFFFFF20EE2EF0DE50DE10DE10DE10EF
:1029C800D8B401D001D009D0000E2E1A000E2F1A4B
:1029D800000E301A800E311A00D02EC02EF02FC0F3
:1029E8002FF030C030F031C031F000D01200FFFFBE
:1029F800FFFF28C01EF029C01FF0206A216A2C6E34
:102A0800960E226E2C502D6E000E236E2D5095ECD6
:102A18000EF01EC028F01FC029F020C02AF021C0E7
:102A28002BF000D01200FFFFFFFF26C01EF027C0CA
:102A38001FF0206A296E8E0E216E29502A6E000E14
:102A4800226E2A50F2EC11F01EC026F01FC027F0AB
:102A580020C028F000D01200FFFFFFFF09C001F0DE
:102A68000AC002F0036A0C6E8E0E046E0C500D6ED6
:102A7800000E056E0D5079EC11F001C009F002C08E
:102A88000AF003C00BF000D01200FFFFFFFF08D0D0
:102A9800628211D062800FD062840DD00CD00BD02E
:102AA8001E50010AD8B4F4D7030AD8B4F3D7060ADB
:102AB800D8B4F2D700D01200FFFFFFFF08D062920F
:102AC80011D062900FD062940DD00CD00BD01E5054
:102AD800010AD8B4F4D7030AD8B4F3D7060AD8B48D
:102AE800F2D700D01200FFFFFFFF1EC0A9FF1FC0D2
:102AF800A8FFA69CA69EA684F29E550EA76EAA0EB7
:102B0800A76EA68200D0A6B201D001D0FCD7A694A9
:102B1800F28E1200FFFF00EE80F0490EEE6AE80622
:102B2800FDE100EE45F01E0EEE6AE806FDE100014B
:102B38003CEF02F0FFFFF29E1EC0A9FFA69CA69ED6
:102B4800A680A8CF1FF0206AF28E1F5000D0120076
:102B5800FFFFFFFF00D09EA801D001D0FCD71EC008
:062B6800ADFF1200FFFFAB
:020000040030CA
:06000100220F0E00018138
:0600080000C00FE00F40F4
:00000001FF
